{
  "contractName": "TokenFarm",
  "abi": [
    {
      "inputs": [
        {
          "internalType": "contract SuperToken",
          "name": "_superToken",
          "type": "address"
        },
        {
          "internalType": "contract DaiToken",
          "name": "_daiToken",
          "type": "address"
        }
      ],
      "payable": false,
      "stateMutability": "nonpayable",
      "type": "constructor"
    },
    {
      "constant": true,
      "inputs": [],
      "name": "daiToken",
      "outputs": [
        {
          "internalType": "contract DaiToken",
          "name": "",
          "type": "address"
        }
      ],
      "payable": false,
      "stateMutability": "view",
      "type": "function"
    },
    {
      "constant": true,
      "inputs": [
        {
          "internalType": "address",
          "name": "",
          "type": "address"
        }
      ],
      "name": "hasStaked",
      "outputs": [
        {
          "internalType": "bool",
          "name": "",
          "type": "bool"
        }
      ],
      "payable": false,
      "stateMutability": "view",
      "type": "function"
    },
    {
      "constant": true,
      "inputs": [
        {
          "internalType": "address",
          "name": "",
          "type": "address"
        }
      ],
      "name": "isStaking",
      "outputs": [
        {
          "internalType": "bool",
          "name": "",
          "type": "bool"
        }
      ],
      "payable": false,
      "stateMutability": "view",
      "type": "function"
    },
    {
      "constant": true,
      "inputs": [],
      "name": "name",
      "outputs": [
        {
          "internalType": "string",
          "name": "",
          "type": "string"
        }
      ],
      "payable": false,
      "stateMutability": "view",
      "type": "function"
    },
    {
      "constant": true,
      "inputs": [],
      "name": "owner",
      "outputs": [
        {
          "internalType": "address",
          "name": "",
          "type": "address"
        }
      ],
      "payable": false,
      "stateMutability": "view",
      "type": "function"
    },
    {
      "constant": true,
      "inputs": [
        {
          "internalType": "uint256",
          "name": "",
          "type": "uint256"
        }
      ],
      "name": "stakers",
      "outputs": [
        {
          "internalType": "address",
          "name": "",
          "type": "address"
        }
      ],
      "payable": false,
      "stateMutability": "view",
      "type": "function"
    },
    {
      "constant": true,
      "inputs": [
        {
          "internalType": "address",
          "name": "",
          "type": "address"
        }
      ],
      "name": "stakingBalance",
      "outputs": [
        {
          "internalType": "uint256",
          "name": "",
          "type": "uint256"
        }
      ],
      "payable": false,
      "stateMutability": "view",
      "type": "function"
    },
    {
      "constant": true,
      "inputs": [],
      "name": "superToken",
      "outputs": [
        {
          "internalType": "contract SuperToken",
          "name": "",
          "type": "address"
        }
      ],
      "payable": false,
      "stateMutability": "view",
      "type": "function"
    },
    {
      "constant": false,
      "inputs": [
        {
          "internalType": "uint256",
          "name": "_amount",
          "type": "uint256"
        }
      ],
      "name": "stakeTokens",
      "outputs": [],
      "payable": false,
      "stateMutability": "nonpayable",
      "type": "function"
    },
    {
      "constant": false,
      "inputs": [],
      "name": "unstakeTokens",
      "outputs": [],
      "payable": false,
      "stateMutability": "nonpayable",
      "type": "function"
    },
    {
      "constant": false,
      "inputs": [],
      "name": "issueTokens",
      "outputs": [],
      "payable": false,
      "stateMutability": "nonpayable",
      "type": "function"
    }
  ],
  "bytecode": "0x60806040526040518060400160405280601081526020017f537570657220546f6b656e204661726d000000000000000000000000000000008152506000908051906020019061004f929190610164565b5034801561005c57600080fd5b50604051610fd3380380610fd38339818101604052604081101561007f57600080fd5b81019080805190602001909291908051906020019092919050505081600160006101000a81548173ffffffffffffffffffffffffffffffffffffffff021916908373ffffffffffffffffffffffffffffffffffffffff16021790555080600260006101000a81548173ffffffffffffffffffffffffffffffffffffffff021916908373ffffffffffffffffffffffffffffffffffffffff16021790555033600360006101000a81548173ffffffffffffffffffffffffffffffffffffffff021916908373ffffffffffffffffffffffffffffffffffffffff1602179055505050610209565b828054600181600116156101000203166002900490600052602060002090601f016020900481019282601f106101a557805160ff19168380011785556101d3565b828001600101855582156101d3579182015b828111156101d25782518255916020019190600101906101b7565b5b5090506101e091906101e4565b5090565b61020691905b808211156102025760008160009055506001016101ea565b5090565b90565b610dbb806102186000396000f3fe608060405234801561001057600080fd5b50600436106100a95760003560e01c80637547c7a3116100715780637547c7a3146102395780638da5cb5b14610267578063a5ce413b146102b1578063be22f546146102bb578063c93c8f3414610305578063fd5e6dd114610361576100a9565b806306fdde03146100ae5780632b4116f71461013157806345bc78ab1461017b57806360ab5852146101d35780636f49712b146101dd575b600080fd5b6100b66103cf565b6040518080602001828103825283818151815260200191508051906020019080838360005b838110156100f65780820151818401526020810190506100db565b50505050905090810190601f1680156101235780820380516001836020036101000a031916815260200191505b509250505060405180910390f35b61013961046d565b604051808273ffffffffffffffffffffffffffffffffffffffff1673ffffffffffffffffffffffffffffffffffffffff16815260200191505060405180910390f35b6101bd6004803603602081101561019157600080fd5b81019080803573ffffffffffffffffffffffffffffffffffffffff169060200190929190505050610493565b6040518082815260200191505060405180910390f35b6101db6104ab565b005b61021f600480360360208110156101f357600080fd5b81019080803573ffffffffffffffffffffffffffffffffffffffff169060200190929190505050610702565b604051808215151515815260200191505060405180910390f35b6102656004803603602081101561024f57600080fd5b8101908080359060200190929190505050610722565b005b61026f610a9f565b604051808273ffffffffffffffffffffffffffffffffffffffff1673ffffffffffffffffffffffffffffffffffffffff16815260200191505060405180910390f35b6102b9610ac5565b005b6102c3610d04565b604051808273ffffffffffffffffffffffffffffffffffffffff1673ffffffffffffffffffffffffffffffffffffffff16815260200191505060405180910390f35b6103476004803603602081101561031b57600080fd5b81019080803573ffffffffffffffffffffffffffffffffffffffff169060200190929190505050610d2a565b604051808215151515815260200191505060405180910390f35b61038d6004803603602081101561037757600080fd5b8101908080359060200190929190505050610d4a565b604051808273ffffffffffffffffffffffffffffffffffffffff1673ffffffffffffffffffffffffffffffffffffffff16815260200191505060405180910390f35b60008054600181600116156101000203166002900480601f0160208091040260200160405190810160405280929190818152602001828054600181600116156101000203166002900480156104655780601f1061043a57610100808354040283529160200191610465565b820191906000526020600020905b81548152906001019060200180831161044857829003601f168201915b505050505081565b600160009054906101000a900473ffffffffffffffffffffffffffffffffffffffff1681565b60056020528060005260406000206000915090505481565b600360009054906101000a900473ffffffffffffffffffffffffffffffffffffffff1673ffffffffffffffffffffffffffffffffffffffff163373ffffffffffffffffffffffffffffffffffffffff161461056e576040517f08c379a00000000000000000000000000000000000000000000000000000000081526004018080602001828103825260188152602001807f43616c6c6572206d75737420626520746865206f776e6572000000000000000081525060200191505060405180910390fd5b60008090505b6004805490508110156106ff5760006004828154811061059057fe5b9060005260206000200160009054906101000a900473ffffffffffffffffffffffffffffffffffffffff1690506000600560008373ffffffffffffffffffffffffffffffffffffffff1673ffffffffffffffffffffffffffffffffffffffff16815260200190815260200160002054905060008111156106f057600160009054906101000a900473ffffffffffffffffffffffffffffffffffffffff1673ffffffffffffffffffffffffffffffffffffffff1663a9059cbb83836040518363ffffffff1660e01b8152600401808373ffffffffffffffffffffffffffffffffffffffff1673ffffffffffffffffffffffffffffffffffffffff16815260200182815260200192505050602060405180830381600087803b1580156106b357600080fd5b505af11580156106c7573d6000803e3d6000fd5b505050506040513d60208110156106dd57600080fd5b8101908080519060200190929190505050505b50508080600101915050610574565b50565b60076020528060005260406000206000915054906101000a900460ff1681565b6001610796576040517f08c379a00000000000000000000000000000000000000000000000000000000081526004018080602001828103825260128152602001807f616d6f756e742063616e6e6f742062652030000000000000000000000000000081525060200191505060405180910390fd5b600260009054906101000a900473ffffffffffffffffffffffffffffffffffffffff1673ffffffffffffffffffffffffffffffffffffffff166323b872dd3330846040518463ffffffff1660e01b8152600401808473ffffffffffffffffffffffffffffffffffffffff1673ffffffffffffffffffffffffffffffffffffffff1681526020018373ffffffffffffffffffffffffffffffffffffffff1673ffffffffffffffffffffffffffffffffffffffff1681526020018281526020019350505050602060405180830381600087803b15801561087357600080fd5b505af1158015610887573d6000803e3d6000fd5b505050506040513d602081101561089d57600080fd5b81019080805190602001909291905050505080600560003373ffffffffffffffffffffffffffffffffffffffff1673ffffffffffffffffffffffffffffffffffffffff1681526020019081526020016000205401600560003373ffffffffffffffffffffffffffffffffffffffff1673ffffffffffffffffffffffffffffffffffffffff16815260200190815260200160002081905550600660003373ffffffffffffffffffffffffffffffffffffffff1673ffffffffffffffffffffffffffffffffffffffff16815260200190815260200160002060009054906101000a900460ff166109ec5760043390806001815401808255809150509060018203906000526020600020016000909192909190916101000a81548173ffffffffffffffffffffffffffffffffffffffff021916908373ffffffffffffffffffffffffffffffffffffffff160217905550505b6001600760003373ffffffffffffffffffffffffffffffffffffffff1673ffffffffffffffffffffffffffffffffffffffff16815260200190815260200160002060006101000a81548160ff0219169083151502179055506001600660003373ffffffffffffffffffffffffffffffffffffffff1673ffffffffffffffffffffffffffffffffffffffff16815260200190815260200160002060006101000a81548160ff02191690831515021790555050565b600360009054906101000a900473ffffffffffffffffffffffffffffffffffffffff1681565b6000600560003373ffffffffffffffffffffffffffffffffffffffff1673ffffffffffffffffffffffffffffffffffffffff16815260200190815260200160002054905060008111610b7f576040517f08c379a000000000000000000000000000000000000000000000000000000000815260040180806020018281038252601b8152602001807f5374616b696e672062616c616e63652063616e6e6f742062652030000000000081525060200191505060405180910390fd5b600260009054906101000a900473ffffffffffffffffffffffffffffffffffffffff1673ffffffffffffffffffffffffffffffffffffffff1663a9059cbb33836040518363ffffffff1660e01b8152600401808373ffffffffffffffffffffffffffffffffffffffff1673ffffffffffffffffffffffffffffffffffffffff16815260200182815260200192505050602060405180830381600087803b158015610c2857600080fd5b505af1158015610c3c573d6000803e3d6000fd5b505050506040513d6020811015610c5257600080fd5b8101908080519060200190929190505050506000600560003373ffffffffffffffffffffffffffffffffffffffff1673ffffffffffffffffffffffffffffffffffffffff168152602001908152602001600020819055506000600760003373ffffffffffffffffffffffffffffffffffffffff1673ffffffffffffffffffffffffffffffffffffffff16815260200190815260200160002060006101000a81548160ff02191690831515021790555050565b600260009054906101000a900473ffffffffffffffffffffffffffffffffffffffff1681565b60066020528060005260406000206000915054906101000a900460ff1681565b60048181548110610d5757fe5b906000526020600020016000915054906101000a900473ffffffffffffffffffffffffffffffffffffffff168156fea265627a7a72315820950d8b1be78cab6f5227d9d29441bd09ec919a98563140dec80d01c2131cf48564736f6c63430005100032",
  "source": "pragma solidity ^0.5.0;\n\nimport \"./SuperToken.sol\";\nimport \"./DaiToken.sol\";\n\ncontract TokenFarm{\n\n//Name\n\tstring public name = \"Super Token Farm\";\n\tSuperToken public superToken;\n\tDaiToken public daiToken;\n\taddress public owner;\n\n\taddress[] public stakers;\n\tmapping(address => uint) public stakingBalance;\n\tmapping(address => bool) public hasStaked;\n\tmapping(address => bool) public isStaking; \n\n\n\n\tconstructor(SuperToken _superToken, DaiToken _daiToken) public {\n\n\t\tsuperToken = _superToken;\n\t\tdaiToken = _daiToken;\n\t\towner = msg.sender;\n\n\t}\n\n\t// Deposit tokens\n\tfunction stakeTokens(uint _amount) public {\n\n\t\trequire(true, \"amount cannot be 0\"); \n\n\t\t//allows funds to be moved on the behalf of the investor\n\t\tdaiToken.transferFrom(msg.sender, address(this), _amount);\n\n\t\t//update stacking balance\n\t\tstakingBalance[msg.sender] = stakingBalance[msg.sender] + _amount;\n\n\t\t//if a user has never staked send them to the stakers array\n\t\tif(!hasStaked[msg.sender]) {\n\t\t\tstakers.push(msg.sender);\n\t\t}\n\n\t\tisStaking[msg.sender] = true;\n\t    hasStaked[msg.sender] = true;\n\t}\n\n\n\t//Withdraw tokens\n\tfunction unstakeTokens() public{\n\n\t// Get balance to stake\n\t uint balance = stakingBalance[msg.sender];\n\n\t //Require amount greater than 0\n\t require(balance > 0, \"Staking balance cannot be 0\");\n\n\t // Transfer dai to this contract\n\t daiToken.transfer(msg.sender, balance);\n\n\t //Reset staking balance\n\t stakingBalance[msg.sender] = 0;\n\n\t isStaking[msg.sender] = false;\n\t}\n\nfunction issueTokens() public {\n\t\n\t//Only owner can call function\n\trequire(msg.sender == owner, \"Caller must be the owner\" );\n\n\t//Issue tokens to all stakers\n\tfor(uint i=0; i<stakers.length; i++){\n\taddress recipient = stakers[i];\n\tuint balance = stakingBalance[recipient];\n\tif(balance > 0) {\n\tsuperToken.transfer(recipient, balance);\n}\n\t}\n}\n\n\n}",
  "sourcePath": "/Users/apple/defi-app/src/contracts/TokenFarm.sol",
  "compiler": {
    "name": "solc",
    "version": "0.5.16+commit.9c3226ce.Emscripten.clang"
  },
  "schemaVersion": "3.3.3",
  "updatedAt": "2021-01-19T03:57:35.876Z",
  "networkType": "ethereum",
  "devdoc": {
    "methods": {}
  },
  "userdoc": {
    "methods": {}
  }
}